:1000000086C40000BDC40000BBC40000B9C4000029
:10001000B7C40000B5C40000B3C40000B1C4000000
:10002000AFC40000ADC400000C94DE280C94C629B7
:100030000C949328A5C40000A3C40000A1C4000030
:100040009FC400009DC400009BC4000099C4000030
:100050000C9422280C94BA2893C4000091C4000088
:100060008FC400008DC400008BC4000089C4000050
:1000700087C4000085C4000083C4000081C4000060
:100080007FC400007DC400007BC4000079C4000070
:1000900077C4000075C4000073C4000071C4000080
:1000A0006FC400006DC400006BC4000005010902AC
:1000B000A10185020901A1000509190129081500FE
:1000C0002501950875018102050109300931158165
:1000D000257F95027508810609381581257F9501D0
:1000E00075088106050C0A38021581257F95017572
:1000F000088106C0C005010980A101850319012AF4
:10010000B700150126B700950175108100C0050CD8
:100110000901A101850419012AA002150126A002E6
:10012000950175108100C005010906A1018506052C
:100130000719E029E71500250195087501810205D9
:1001400007190029EF1500250195F07501810205B9
:10015000081901290595057501910295017503910D
:1001600001C00660FF0961A1010962150026FF00B8
:100170009520750881020963150026FF00952075FA
:10018000089102C005010906A101050719E029E748
:1001900015002501950875018102950175088101F9
:1001A0000507190029FF150026FF0095067508812F
:1001B000000508190129051500250195057501910E
:1001C00002950175039101C009025B00030100A0C3
:1001D000FA090400000103010100092111010001D5
:1001E00022440007058103080001090401000203FD
:1001F00000000009211101000122220007058203ED
:100200002000010705030320000109040200010387
:1002100000000009211101000122B6000705840336
:10022000200001120100020000000803A1050001E6
:10023000000102000116034B004200440038005840
:10024000002D004D004B0049004900000010034BF9
:100250000042004400660061006E0073000000046C
:1002600003090429003A003C003E004000420044DB
:10027000004600480000003B003D003F00410043B5
:100280000045004700000035001F00210023002525
:100290000027002E0049004B001E002000220024F1
:1002A0000026002D002A004A0000002B001A00152D
:1002B000001C000C00130030004C004E001400081D
:1002C000001700180012002F0031004D0000003907
:1002D00000160009000B000E0033004C0000000067
:1002E00000040007000A000D000F00340028000081
:1002F000000000E1001D000600050010003700E5C9
:10030000000000000031001B001900110036003809
:10031000004C0052000000E000E20000002C000051
:1003200000E600650050004F00E300000000000000
:10033000000000E700E4005100000001000100019E
:1003400000010001000100010001000100000001A6
:100350000001000100010001000100010000000196
:100360000001000100010001000100010001000185
:100370000001000100010001000100010001000175
:100380000000000100010001000100010001000166
:100390000001000100010001000100010001000155
:1003A0000001000100000001000100010001000146
:1003B0000001000100000000000100010001000137
:1003C0000001000100010000000000010001000127
:1003D0000001000100010001000000000001000117
:1003E0000001000100010001000100010000000106
:1003F00000010000000100000001000100010001F7
:1004000000010000000000000000000100010001E8
:1004100000000001000100010001000100010001D5
:1004200000010001000000010001000100010001C5
:1004300000010001000000010001000100010001B5
:1004400000010001000100010001000100010001A4
:100450000001000100010001000000010001000195
:100460000001000100010001000100010001000184
:100470000001000100010001000100010000000175
:100480000001000100010001000100010000000066
:100490000001000100010001000100010001000055
:1004A0000000000100010001000100010001000145
:1004B0000000000000010001000100010001000136
:1004C0000001000100000001000100000001000027
:1004D0000001000100010001000100000000000017
:1004E0000000000100010001000000010001000106
:1004F00000010001000100010001000100000001F5
:1005000000010001000100010001000100000001E4
:1005100000010001000100010001000100010001D3
:1005200000010001000100010001000100010001C3
:1005300000000001000100010001000100010001B4
:1005400000010001000100010001000100010001A3
:100550000001000100000001000100010001000194
:100560000001000100000000000100010001000185
:100570000001000100010000000000010001000175
:100580000001000100010001000000000001000165
:100590000001000100010001000100010000000154
:1005A0000001000000010000000100010001000145
:1005B0000001000000000000000000010001000137
:1005C0000000000000000000000000000000010129
:1005D0000203040506080A0C0F1114181C20242914
:1005E0002E33393F464C535B626A7179818A929A05
:1005F000A2AAB2B9C1C8CFD5DCE1E7EBF0F4F7FAB3
:10060000FCFDFEFFFEFDFCFAF7F4F0EBE7E1DCD5C4
:10061000CFC8C1B9B2AAA29A928A8179716A625B83
:10062000534C463F39332E2924201C1814110F0C2B
:100630000A08060504030201010000000000000092
:100640000000002223252628292A2C2D2F30323382
:100650003536383A3B3D3E4042434547494A4C4E89
:100660005051535557595A5C5E6062646668696BB5
:100670006D6F71737577797B7D7F81838587898ABB
:100680008C8E90929496989A9C9E9FA1A3A5A7A8C1
:10069000AAACAEAFB1B3B4B6B8B9BBBCBEBFC1C2F1
:1006A000C3C5C6C7C9CACBCCCDCED0D1D2D2D3D484
:1006B000D5D6D7D7D8D9D9DADADBDBDBDCDCDCDCA2
:1006C000DCDDDDDDDDDCDCDCDCDCDBDBDBDADAD970
:1006D000D9D8D7D7D6D5D4D3D2D2D1D0CECDCCCBF2
:1006E000CAC9C7C6C5C3C2C1BFBEBCBBB9B8B6B410
:1006F000B3B1AFAEACAAA8A7A5A3A19F9E9C9A98A0
:10070000969492908E8C8A89878583817F7D7B7970
:10071000777573716F6D6B6968666462605E5C5A51
:100720005957555351504E4C4A4947454342403E14
:100730003D3B3A3836353332302F2D2C2A292826A6
:10074000252322FFAA7F554000010101010101017B
:100750000101020202020202020202030303030376
:100760000303030404040404040405050505050645
:100770000606060607070707070808080809090903
:10078000090A0A0A0B0B0B0C0C0C0D0D0D0E0E0EAC
:100790000F0F0F101011111112121313141415153D
:1007A00016161717181819191A1A1B1B1C1D1D1EAF
:1007B0001E1F202021222223242425262627282903
:1007C000292A2B2C2D2D2E2F303132323334353631
:1007D0003738393A3B3C3D3E3F4041424344454631
:1007E0004748494A4C4D4E4F50515354555658590D
:1007F0005A5B5D5E5F616264656668696B6C6D6FB4
:100800007072737577787A7B7D7E80828385878826
:100810008A8C8E8F91939596989A9C9EA0A2A3A560
:10082000A7A9ABADAFB1B3B5B7BABCBEC0C2C4C661
:10083000C9CBCDCFD1D4D6D8DBDDDFE2E4E7E9EB1D
:10084000EEF0F3F5F8FAFDFF1E0F0500047F3F1FE1
:10085000643214643214783C1E1E140A0500000031
:100860000000000000000000000000000000000088
:100870000000000000000000000000000000000078
:10088000007E0F00D4FFFFFFC700000078000000CB
:1008900000000000002A2B280000000000000000DB
:1008A000000000000000000029000000002C1E34A1
:1008B00020212224342627252E362D3738271E1FA7
:1008C000202122232425263333362E37381F0405D2
:1008D000060708090A0B0C0D0E0F10111213141540
:1008E000161718191A1B1C1D2F3130232D3504051E
:1008F000060708090A0B0C0D0E0F10111213141520
:10090000161718191A1B1C1D2F3130354C001124D5
:100910001FBECFEFDAE0DEBFCDBF04B603FE19C0C5
:100920008091FF0390910004A0910104B091020412
:100930008730904BA740B04B61F41092FF031092A8
:1009400000041092010410920204E0E0F8E309951B
:1009500000C023E0A4EEB1E001C01D92AF3FB2079A
:10096000E1F711E0A0E0B1E0E2EFF8E502C00590A8
:100970000D92A43EB107D9F70E9419220C94C12B05
:100980003FCB982F909581FD05C0769A92FF04C0C9
:100990002A9A08957698FACF2A9808958093B803F2
:1009A00008958093B903089521E001C0220F8A952C
:1009B000EAF78091B903822BF4CF21E001C0220F26
:1009C0008A95EAF7822F80959091B9038923E9CF20
:1009D000292F9C3090F5893080F590E039E0239FF5
:1009E000800D911D112451E081FD54E080FD550FD3
:1009F00082FD529523E0969587952A95E1F7FC01B3
:100A0000EE0FFF1FE80FF91FEF58FC4F20E030E01A
:100A100070E04191DF01CB01022E02C096958795CF
:100A20000A94E2F78695880B8427852384278E9382
:100A30002F5F3F4F2330310561F70895292F9C30F8
:100A400070F5893060F590E039E0239F800D911DAD
:100A50001124682F677023E0969587952A95E1F712
:100A6000FC01EE0FFF1FE80FF91FEF58FC4F40E0AD
:100A700050E080E0219130E0062E02C036952795A7
:100A80000A94E2F72170042E01C0220F0A94EAF7BB
:100A9000822B4F5F5F4F4330510561F7089580E02F
:100AA00008959091B90321E030E0F90101C0EE0F03
:100AB0008A95EAF7D90101C0AA0F6A95EAF7EA2BED
:100AC00001C0220F4A95EAF7892F8E23E81303C04D
:100AD000892F822B66CF2095822F8923FBCFE0912F
:100AE000BF039091BE03E91302C080E008959F0107
:100AF00057E0E59FF0011124E054FC4F518156135B
:100B000006C05081581303C05581541305C02F5F90
:100B10003F4FF901E770E7CF81E008958091BF036F
:100B20002091BE03281301C0089501968770FACF63
:100B30009091BA03809589238093BA03282F277058
:100B400061F4891751F09091BC0392FF06C086951D
:100B50008695869532DF1092BA0308958091B50389
:100B60009091BD03892B9091B6039115C9F0892B03
:100B700090912701913021F49091BB0397FD11C012
:100B800096E028EE31E040E09150F90150812F5F6E
:100B90003F4F51114F5F9111F7CF41111092B603A2
:100BA00008959EE120EF31E0EECF8095982F80915F
:100BB000B50389238093B5030895803E9105D1F153
:100BC000C8F48133910509F481C048F48932910554
:100BD00009F471C08A32910509F47FC00895893300
:100BE0009105E1F082389105C9F08533910509F44A
:100BF0005DC00895843E9105D1F148F4823E91058F
:100C000031F1833E910541F181EE90E00895863EF9
:100C10009105C1F1873E9105F1F108952091BB0343
:100C2000237009F064C02091BC0323FF14C089E243
:100C300090E008952091BB0320FD45C03091BC0396
:100C400030FF09C024FD24C083EE90E00895209178
:100C5000BB0322FDF7CF08952091BB0322FD44C0C2
:100C60003091BC0330FD43C024FFF5CF11C020916B
:100C7000BC0321FFF0CF8091BB0384FD09C087EE48
:100C800090E008952091BB0323FFE5CF24FFF7CF29
:100C900080E090E008952091BB0323FD2BC03091AC
:100CA000BC0331FFE1CF84EE90E008952091BB03B7
:100CB00025FFD1CFBCCF2091BB0325FD1EC02091C5
:100CC000BC0323FFC8CF89E390E008952091BB03C4
:100CD00026FFC1CF8AE290E008952091BB0326FF52
:100CE000BACF81E390E0089582EE90E0089580EE1F
:100CF00090E0089586EE90E0089585E390E00895F1
:100D00009091BB0392FF10C041E0282F2471243042
:100D100009F040E031E0282F2871283009F030E058
:100D2000431711F02CE0822793FF10C041E0282FD9
:100D30002471243109F040E031E0282F2871283156
:100D400009F030E0431711F02CE082273091BC030A
:100D500030FF10C051E0282F2171213009F050E000
:100D600041E0282F2871283009F040E0541711F095
:100D700029E0822731FF10C041E0282F2171213165
:100D800009F040E031E0282F2871283109F030E0E7
:100D9000431711F029E0822794FF02C083FD877E6C
:100DA00008950F931F93CF93DF9307DFEC01D235A4
:100DB00008F04DC0D03508F0C3C0C03ED10530F5B5
:100DC000CD3CD10508F09AC0C83AD10578F4C53AAF
:100DD000D10508F090C0C130D10599F1CE0104973A
:100DE000813A910570F1C0E0D0E02BC0CE01885A65
:100DF00091094B97C0F7C85AD0E0CC0FDD1FC858F7
:100E0000DE4F0990D881C02DD4641BC0D03490F43B
:100E1000D03208F0A8C0C83ED10598F0CE0191505C
:100E20009F3108F78D2F6CDF082F8C2F90E0C5DEE7
:100E3000902B54C08C2F90E0C0DEDF70C82FD92BD0
:100E4000D06ACE01DF91CF911F910F910895C038E4
:100E500082E5D807B8F5C03682E5D80708F056C055
:100E6000C03482E5D807C8F4C03282E5D80708F05C
:100E700047C08C2F8695869520E2829FC001112461
:100E8000C37021E030E002C0220F331FCA95E2F7A1
:100E9000E901C82BD92BDD68D4CF8C2F8695869598
:100EA000877020E2829FC0011124C37021E030E0EE
:100EB00002C0220F331FCA95E2F7E901C82BD92BD4
:100EC000DC68BFCFC03C82E5D80750F48C2F8F710F
:100ED000C03AD24580F5982F84EF906AEC01B1CFEB
:100EE000CE01805C9245809708F07DCFDC2FDF71CA
:100EF000C0EFD06AA6CFA497D064A3CFD065A1CF0E
:100F00008C2F8F71D82FC1EFD06A9BCF8C2F8695F5
:100F10008695877020E2829FC0011124C37021E072
:100F200030E002C0220F331FCA95E2F7E901C82B57
:100F3000D92BDA6886CFE4DEC0E0D82FD06281CF2B
:100F40008C2F8F71DDDE93E0CC0FDD1F9A95E1F7DA
:100F5000DF70282F84FF04C090E1899F9001112445
:100F6000C22FD0696ECF8D2F8F71CADE082F8C2FC4
:100F700090E023DE902BEC01E1CF80E00895F8941F
:100F8000E82FE295EF70F0E041A18F7021E001C001
:100F9000220F8A95EAF7922F9095942391A392A11C
:100FA000822F892B82A3789408950895CF92DF929F
:100FB000EF92FF921F93CF93DF93462F172FE82FC7
:100FC000F0E0E85BF84F71110CC0E4918E2F7E2F9A
:100FD0006E2FDF91CF911F91FF90EF90DF90CF9018
:100FE0000895F491EF2F86E0689FE00111242FEF20
:100FF00030E0CE01B9010E94372ADB01CA01880F17
:10100000991F65E56A9FA0016B9F500D1124841BF9
:10101000482F440F480FC901811B9109F89F7001A7
:10102000F99FF00C11248F2D149FB0011124672F0C
:1010300070E06901C61AD70AB601F69F6001F79FF2
:10104000D00C1124A330B10549F1B901641B710919
:10105000AB01149FB001159F700D1124672F70E034
:10106000261B370BF29FA001F39F500D1124752F03
:10107000CC3FD34050F4A130B105A1F0129709F054
:10108000A7CFEF2D852F7F2FA3CFA430B10569F017
:10109000169709F49DCF7F2D8D2D9ACF7D2DEF2DA5
:1010A0008F2F96CF7F2FED2D93CFE52F7F2DF8CF6C
:1010B000CF93762FC22F682F842F78DF472F282FCA
:1010C0008C2F90E0BCD2CF9108958091AD038430F5
:1010D00060F4837084608093AD038091B003893C99
:1010E00018F088EC8093B00308958C3AB0F38370C5
:1010F000886AF1CFCF93DF938091AD0380FD0BC061
:10110000C0E0D0E020E040E060E0CE0198D221963F
:10111000C431D105B9F722D6DF91CF910895FF925E
:101120000F931F93CF93DF93182F062FF42E8091E8
:10113000AD0380FF0CC0C0E0D0E02F2D402F612F09
:10114000CE017DD22196C431D105B9F7D3DFCDB719
:10115000DEB7E5E00C94822BCF93DF93EC01209176
:10116000B0039C81892F817090FD822F692F62705E
:1011700091FD622F492F447092FD422FD0DF8C8168
:10118000019687708C83DF91CF910895762F90918F
:10119000AD0390FF0BC0493C08F048EC682F842F4A
:1011A00005DF962F672F482F892FB9CF0895CF934A
:1011B000DF93EC01EDEAF3E0438162818C81E6DFAD
:1011C0008C818F5F8C83DF91CF910895CF93DF93D4
:1011D000EC01EC81F0E0ED5BF94F4491EDEAF3E0D6
:1011E00062818181D3DF8C818F5F8C83DF91CF918E
:1011F0000895FF920F931F93CF93DF93EC01F12C8F
:1012000000E010E04091B003493C08F048EC8C81CC
:1012100098016091AF038F0D4BDF0F5F1F4F8CE084
:10122000F80E0431110571F765DF8C819A8190FF0A
:1012300007C08F5F8C83CDB7DEB7E5E00C94822BBF
:101240008150F8CFEF92FF920F931F93CF93DF93CC
:10125000FC018281EE24E39480FF02C0EE24EA9434
:10126000C0E0D0E020E040E060E0CE01E8D104E062
:1012700010E0F12C8091CC028F0D8531A4F164E156
:101280000E942A2A892F082E001C00088C170D06A0
:1012900091F44091B0030403A001112455954795A2
:1012A00055954795493C08F048EC9E016091AF0385
:1012B0008091AE03FDDEFE0C01501040D9F6219660
:1012C000C431D10579F616DF8091CC029E2D913084
:1012D00071F4811591F081508093CC02CDB7DEB7C7
:1012E000E6E00C94812B87FFCECF8C5ECCCF90E0D4
:1012F0000196BE010E944B2AEFCF83E1EDCFCF9341
:10130000DF93C0E0D0E020E040E060E0CE0197D184
:101310002196C431D105B9F7C0E0D0E08091CB026D
:10132000082E001C0008C817D00574F18091070131
:10133000082E001C00088C170D0634F14091B003F4
:10134000493C08F048EC9E016091AF038091AE03E8
:10135000AFDE2196C431D10509F7CCDE80910601BC
:101360009091CB02980F9093CB0220910701280F08
:1013700020930701121614F493311CF08195809389
:101380000601DF91CF91089520E040E060E0CE01BA
:1013900056D1DFCFA0E0B0E0E0EDF9E00C94612B96
:1013A000EC01FC812F2F30E0D9010E94902B9B0192
:1013B000AC010E94492B7B018C0180E290E08F1BE5
:1013C0009109FC01A5E59701A8010E94492B5B0149
:1013D0006C019F01DF010E94092A9B010E946B2A78
:1013E0009B01AC012E0D3F1D401F511FB501C601D1
:1013F0000E949F2B022F30E00A3298F5C901880F16
:10140000991F820F931F95958795182F1095E12CA2
:10141000F12C85E5801BD82E8D2DE1FC802F412FEE
:10142000193C08F048EC97016091AF0341DE8FEF63
:10143000E81AF80A84E1E816F10471F75BDE9C8192
:1014400081E0911519F0903219F48FEF8093050126
:1014500080910501890F8C83CDB7DEB7EAE00C944B
:101460007D2B85E590E0821B930B9C01880F991FD3
:10147000820F931F42F60196C6CF0F931F93CF930F
:10148000DF93EC0120E030E06091AF038091AE0388
:101490009C8189010F5F1F4F2A30310554F491154B
:1014A000F1F04091B003493C08F048EC01DE9801AE
:1014B000EBCF911114C04091B003493C08F048ECC7
:1014C000F7DD980104311105F9F614DE8C810196DF
:1014D00081708C83DF91CF911F910F91089540E02F
:1014E000EFCF0F931F93CF93DF93EC018091860092
:1014F000909187006CE070E00E94372A6C177D079E
:1015000058F0CE0169E070E00E94372ACB01DF91EC
:10151000CF911F910F91089580918600909187003F
:1015200020918600309187008901209186003091BA
:10153000870066E070E00E94372AE0E0F0E0C60F26
:10154000D71FE11DF11D85E0CC0FDD1FEE1FFF1F32
:101550008A95D1F7C80166E070E00E94372A40E022
:1015600050E0260F371F411D511DBE01CF010E94C3
:101570009F2BE901FA0180918600909187008C01F0
:10158000B901CA010E940F2A9B01AC01D8010E9437
:10159000492B9B01AC01BE01CF010E940F2A770F9E
:1015A000AC0177276627441F551F661F8091860070
:1015B00090918700841795071606170620F440912E
:1015C000860050918700CA01A2CF8430E0F48111D7
:1015D0001BC090918000977F90938000209186009F
:1015E00030918700A82FB0E00E94902B23E030E0DC
:1015F00040E050E00E949F2BC90173DF90938D0063
:1016000080938C00089583E0909180009860E4CFEF
:10161000982F990F990F990F2091A8032770922B5B
:101620009093A80321E0983008F420E09091A8035B
:1016300020FB90F99093A803C8CF239A0895FC014A
:10164000EE0FFF1FE80FF91FE55DFD4F618340833B
:1016500022830895382F25EB3203C001112497FF10
:1016600004C080589109892F089580589F4FFBCF5F
:101670008091A10380FF0DC06091220170E0660F90
:10168000771F6038710588F56115710581F1862F26
:10169000089581FF07C06091220184E0689FB00136
:1016A0001124EFCF82FF04C06091220188E0F6CFC1
:1016B0009091A0039115B9F06091210180912201D0
:1016C000961728F098E0899FB0011124DACF899FFE
:1016D000C001112423E0880F991F2A95E1F770E0DB
:1016E0000E944B2ACECF68E0D2CF8FE7089581E0E9
:1016F00008958091A10380FF0CC06091200170E0EB
:1017000075956795759567956115710541F1862FFA
:10171000089581FF06C06091200170E0759567957E
:10172000F3CF6091200182FD0BC090919F03911532
:10173000A1F060911F0180912001961738F0682F69
:1017400070E06038710500F38FE70895899FC0014C
:10175000112470E00E944B2AF4CF61E0D8CF81E0E1
:101760000895E0916703F0916803309739F0019094
:10177000F081E02D309711F00995089580E00895EB
:10178000A3E0B0E0E6ECFBE00C94692B209127028B
:101790003091280228173907B1F0809327029093DF
:1017A0002802E0916703F0916803309761F00084AC
:1017B000F185E02D309739F023E029838A839B83DC
:1017C000CE01019609952396E2E00C94852BA3E0C7
:1017D000B0E0EDEEFBE00C94692B209125023091F6
:1017E000260228173907B1F080932502909326022C
:1017F000E0916703F0916803309761F00084F18510
:10180000E02D309739F024E029838A839B83CE0131
:10181000019609952396E2E00C94852B909127017F
:10182000913099F0A8EEB1E0EFEF90E02C918217A3
:1018300059F01196EF3F19F4211101C0E92F9F5F74
:101840009630A1F7EF3FC1F408959091BB0397FF45
:10185000E9CFE82FE695E695E695803FA8F7F0E01A
:10186000E251FE4F877021E001C0220F8A95EAF70E
:101870008281822B82830895FE2FFF0FFF0BEA5196
:10188000FE4FF8CF90912701913021F49091BB0346
:1018900097FD0CC0E8EEF1E09191891302C0DF01E1
:1018A0001E9291E0EE3EF907B9F70895E82FE6950C
:1018B000E695E695803FC8F7F0E0E251FE4F9DEFD8
:1018C00081FD97EF80FF959582FD92958281892316
:1018D000828308958091260108952FB7F89480910E
:1018E000210290912202A0912302B09124022FBFE5
:1018F0000895F3DF9C019091A4038091A503982B98
:1019000021F020930E0330930F039091A603809152
:10191000A703982B21F020930C0330930D03E09143
:101920006703F0916803309759F00680F781E02D46
:10193000309731F082E08093A20382EA93E0099528
:101940000895611509F440C0E82FED5CE33148F4D7
:10195000F0E0ED53F44D0C945E2A8ADE819580937D
:10196000A503C7CF85DEFBCF83DE81958093A403DB
:10197000F8CF7EDEFBCFBDDE8093A603F2CFB9DECB
:101980008195FACFB6DE81958093A703EACFB1DEC9
:10199000FBCF815D990B21E001C0220F8A95EAF708
:1019A0008091A303822B8093A303DBCF8091A103BB
:1019B00081608093A103D5CF8091A1038260F9CF8C
:1019C0008091A1038460F5CF4091A4038D3C59F42C
:1019D0008091A50387FF0DC01092A503411559F40E
:1019E0001092A00308C08E3C81F48091A5031816C4
:1019F0009CF3411581F08091A6039091A703892B58
:101A000009F0AFCF10929F03ACCF8F3C41F447FF5A
:101A1000F0CF1092A4038091A5038115E0CF803D03
:101A200019F41416B4F3E5CF9091A603893D29F477
:101A30001916FCF61092A603DCCF8A3D19F497FF25
:101A4000D8CFF8CF9091A7038B3D29F497FFD1CF42
:101A50001092A703CECF8C3D19F41916CCF3C9CF41
:101A6000982F915D983078F4815D990B21E001C049
:101A7000220F8A95EAF7822F80959091A3038923FC
:101A80008093A303B6CF8D3D31F48091A1038E7F67
:101A90008093A103AECF8E3D21F48091A1038D7F71
:101AA000F7CF8F3D09F0A5CF8091A1038B7FF0CFB9
:101AB0002FB7F89460912102709122028091230245
:101AC000909124022FBF0895FC01209117023091BC
:101AD00018022617370748F06115710529F490910F
:101AE000E8009E779093E8009B0190E02115310576
:101AF00041F4911106C08091E80082FF32C080E07D
:101B00000895809111038115C1F18530C1F1809153
:101B1000E80083FD30C08091E80082FDECCF809129
:101B2000E80080FFE3CF8091F3004091F200582F4E
:101B30002115310519F04830510558F091E0483031
:101B4000510509F090E04091E8004E774093E8009D
:101B5000CDCF81918093F100215031094F5F5F4FCC
:101B6000E7CF80911103811541F0853041F08091DC
:101B7000E80083FFC0CF81E0089582E0089583E00C
:101B80000895982F9093E900891771F07091EC00F7
:101B90002091ED005091F00021FD09C09F5F97302A
:101BA00089F78093E9000895762F242F50E0309133
:101BB000EB003E7F3093EB003091ED003D7F3093A2
:101BC000ED003091EB0031603093EB007093EC004E
:101BD0002093ED005093F0002091EE0027FDDECF22
:101BE00008958091110287FF13C08091E80082FF61
:101BF00006C08091E8008B778093E800089580917B
:101C000011038111F2CF0895809111038115D9F349
:101C10008091E80080FFF8CF8091E8008E77ECCFCC
:101C20002091E4003091E50095E6A9012091EC00B7
:101C3000822F817020FF06C08091E80080FF06C0DF
:101C400080E008952091E80022FD1AC080911103E0
:101C5000811589F0853089F08091EB0085FD0FC0FA
:101C60002091E4003091E50042175307F9F29150BA
:101C7000E1F684E0089582E0089583E0089581E02C
:101C80000895CF93DF93C8EDD0E088818F7E88835D
:101C9000E7EDF0E080818160808384E082BF81E0B5
:101CA0008093100288818E7F8883E2EE10821092EA
:101CB000DA00A1EEB0E01C9288818F77888388815A
:101CC0008068888388818F7D888319BC1092110376
:101CD00010920F021092D40210920E02A0EE8C917C
:101CE0008B7F8C9388818160888342E060E080E014
:101CF00048DFA1EEB0E08C918E7F8C93E2EEF0E0B5
:101D0000808181608083808188608083E0EE808133
:101D10008E7F8083888180618883DF91CF91089551
:101D2000E8EDF0E080818E7F80831092E2001092D7
:101D3000DA001092E100A0EEB0E08C9181608C930B
:101D400080818F77808319BCA7ED8C918E7F8C93D7
:101D500080818F7E808310921002089535B1377F85
:101D600025B128604FB7F8948BE292E0FC01019610
:101D7000508168E025B9000000C057FF35B9550F04
:101D8000000000C000C000C035B900C06A9591F7DE
:101D900052E08736950751F74FBF8FE594E00197E2
:101DA000F1F700C00000089581E08093E00080E238
:101DB0008093D8001092C9008FE19EE40197F1F75B
:101DC00000C00000A7E0B0EBCD018093FF0390932B
:101DD0000004A0930104B093020488E19CE00FB6D4
:101DE000F894A895809360000FBE90936000FFCF99
:101DF0000F931F93CF93DF93EB018A01909111030F
:101E0000943059F58093E9008FEF9091E80095FDAB
:101E100006C095ED9A95F1F700008150B1F78091D9
:101E2000E80085FF1AC0FCDE811112C08091E80035
:101E300085FD06C08091E8008E778093E800F3CF9F
:101E400088818093F1000150104011F02196EECF6F
:101E50008091E8008E778093E800DF91CF911F9109
:101E60000F910895603229F440E250E0BC0182E015
:101E7000BFCF0895CF93DF93EC0148E050E0BC0161
:101E800081E0B6DF88E0FE01A9E1B2E001900D92A9
:101E90008A95E1F7DF91CF91089540E250E0BC01CF
:101EA00084E0A6CF46E050E0BC0184E0A1CF43E04F
:101EB00050E0BC0184E09CCF9091BC0392FB2227B0
:101EC00020F9281779F080FB92F99093BC03609178
:101ED000BB037091BC0384E090E00E94192B82E068
:101EE0000C9498050895FC01608186E090E00C94C4
:101EF000FF2A8091A80380FD11C081608093A80310
:101F0000813019F489E08093A80388EA93E0EBDF3D
:101F10008091A80386958695869557CB08958091E4
:101F2000A80380FF08C08E7F8093A80388EA93E00F
:101F3000DADF80E04ACB08958091A80381FD11C0CB
:101F400082608093A80388EA93E0CDDF1092CE02EE
:101F50001092CF021092CD0280916F008160809329
:101F60006F0008958091A80381FF11C08D7F809339
:101F7000A80388EA93E0B7DF80916F008E7F80939B
:101F80006F008091A8038695869586951ECB08954F
:101F90001F93CF93DF93122F8430E0F46C30D0F492
:101FA0004930C0F4C42FD0E0CC0FDD1F22E1629F86
:101FB000C00DD11D112498ED899FC00DD11D112494
:101FC000632FCE0189960E94FF2A612FCE018A9647
:101FD0000E94FF2ADF91CF911F910895AF92BF9287
:101FE000CF92DF92FF920F931F93CF93DF93A12C99
:101FF000B12C00E0650110E012C0FE012591359181
:102000004F2D612F802FC4DF2296F3948F2D8930BE
:10201000A1F789E0C80ED11C1F5F1C3039F0E60122
:10202000CC0FDD1FCD59DD4FF12CE7CF0F5F8CE6D4
:10203000A80EB11C0430F1F6DF91CF911F910F91E2
:10204000FF90DF90CF90BF90AF90089580912701CF
:10205000813069F58091BB0387FF29C00E94AE05DE
:102060008093EF0140E250E067E473E08EEE91E090
:102070000E94D12A892BD1F080E2EEEEF1E0A7E4B4
:10208000B3E001900D928A95E1F7E0916703F0913A
:102090006803309759F00480F581E02D309731F0D6
:1020A00086E08093EE018EEE91E0099508950E94FE
:1020B000AE058093E60148E050E069E673E086EE05
:1020C00091E00E94D12A892B89F388E0E6EEF1E0C5
:1020D000A9E6B3E001900D928A95E1F7E0916703DC
:1020E000F0916803309711F30280F381E02D30976F
:1020F000E9F286EE91E0D9CF811509F446C0823825
:1021000049F42FDB81FF41C089E388DB9FDF89E34E
:10211000B9DB9CCF833841F424DB80FF36C083E5F4
:102120007DDB94DF83E5F4CF843841F41ADB82FF52
:102130002CC087E473DB8ADF87E4EACF982F9450C2
:10214000913A30F3982F905E983058F4982F81E0B0
:1021500091FD84E090FD880F92FD82950E94D50547
:10216000D8CF982F955A933018F480E090E008CBA0
:10217000982F985A9B3118F480E090E028CB982F44
:102180009D5C933110F460E0DCCB0895811531F053
:102190009091B503982B9093B50358CF089581156E
:1021A00019F00E94D50552CF08951092B503809181
:1021B0002701813001F58091BB0387FF1CC0E0EF50
:1021C000F1E08EE111928A95E9F780E090E0D8DAAB
:1021D00080E090E0FCDA1092BD0338DFE2EAF3E041
:1021E00086E011928A95E9F71092A00310929F035E
:1021F0001092A1037ECBE8EEF1E086E0E3CFD5DFDD
:1022000088E19CE00FB6F894A895809360000FBE1B
:1022100090936000FFCFAAE2B0E0E1E1F1E10C941D
:10222000682B81E192E0FC0101962091F10020836E
:1022300022E089319207B9F780911202893009F4BE
:1022400057C0C8F4823009F4B3C0833009F483C0A6
:10225000813081F18091E80083FFE7C08091110215
:10226000909112029A3008F0E0C0E92FF0E0EA52B3
:10227000F44D0C945E2A8A3009F48AC08B3051F7F1
:1022800080911102813231F78091150290911602EE
:10229000892B01F78091E800877F8093E800A1DC1B
:1022A00081E090911302911101C080E08093270199
:1022B0007CDFD0CF80911102813A61F68091E800F5
:1022C000877F8093E8008091150290911602892BF8
:1022D00059F060E080E090E070E0F6DB8091E8008B
:1022E0008B778093E800B6CF68E089E192E0F4CF85
:1022F00080911102813209F0ADCF80911502909149
:1023000016028D7F892B09F0A5CF8091E800877F89
:102310008093E8008091E80082FF18C02091F300CC
:102320008091F200922F029731F48091F100813078
:1023300011F0863021F48091F10080932601809184
:10234000E8008B778093E8004CDC84CF8091110308
:102350008111E0CF7FCF80911102813A09F07ACFCD
:102360008091150290911602892B09F073CF80910C
:10237000E800877F8093E8008091E80080FFFCCF31
:10238000809127018093F1008091E8008E77DACF69
:1023900080911102813209F05DCF8091E800877F42
:1023A0008093E8001EDC809114028093250152CFB7
:1023B00080911102813A09F04DCF8091E800877F2A
:1023C0008093E8008091E80080FFFCCF8091250198
:1023D000D9CF803889F0823841F5809115028F700D
:1023E000873018F58093E9008091EB0085FB882702
:1023F00080F91092E90006C08091D402880F909174
:102400000E02892B9091E800977F9093E8008093CB
:10241000F1001092F1008091E8008E7723C08111C5
:1024200016C080911302813009F18091E80083FF8A
:102430000AC08091E800877F8093E8008091EB00DC
:1024400080628093EB00AA96E3E00C94842B8230A8
:1024500061F780911302811579F01092E900809163
:10246000E800877F8093E800BCDBDFCF933009F082
:1024700080E08093D402F1CF809115028F70282FD5
:102480002150263090F68093E9002091EB0020FF48
:10249000E4CF933031F48091EB0080628093EB00C5
:1024A000DCCF9091EB0090619093EB0021E001C0B4
:1024B000220F8A95EAF72093EA001092EA008091B1
:1024C000EB008860EBCF8111B0CF809113028F7742
:1024D000182F8091E3008078812B8093E300809116
:1024E000E800877F8093E8007CDB8091E80080FF34
:1024F000FCCF8091E30080688093E30083E01111BA
:1025000001C082E08093110390CF8058823008F0A0
:102510008CCF80911302909114028C3D23E092079E
:1025200089F583E08A838AE289834FB7F894DE01D4
:10253000139620E03EE051E2E32FF0E05093570085
:10254000849120FF03C082958F703F5F8F708A3027
:10255000B8F0895C8D931D922F5F243169F74FBFCE
:102560008091E800877F8093E8006AE270E0CE0106
:102570000196AADA8091E8008B778093E80055CF26
:10258000805DE8CF292F30E02330310509F44DC0BC
:1025900078F52130310509F47CC08BE590E0E8EC5A
:1025A000F1E02230310509F040CF2091E800277F8B
:1025B0002093E800209117023091180282179307A8
:1025C00008F49C0140E02115310509F067C0411174
:1025D00065C08091E80082FDCDCF80911103811507
:1025E00049F2853039F28091E80083FFF2CFC2CF03
:1025F000809115029091160221323105D9F12232D3
:10260000310509F012CF8330910508F00ECFFC019F
:10261000EE0FFF1FE45DFE4F0190F081E02D875D1E
:102620009E4FDC018C9190E011C0282F30E081306A
:1026300089F022303105B1F0232B09F0F6CEEFE519
:10264000F2E0E4918E2F90E0EFE5F2E0009709F4DC
:10265000ECCEABCFEDE4F2E0E4918E2F90E0EDE430
:10266000F2E0F4CFE5E3F2E0E4918E2F90E0E5E3D1
:10267000F2E0ECCF8330910508F0D7CE880F991F98
:10268000FC01EE5CFE4F0190F081E02D89E090E0CE
:102690008CCF82E190E0E3E2F2E087CF80911103FA
:1026A000811509F467CF853009F464CF8091E80083
:1026B00083FD60CF8091E80082FD8BCF8091E800A0
:1026C00080FF81CF4091F3008091F200942F21157B
:1026D000310519F08830910550F041E0089709F074
:1026E00040E08091E8008E778093E8006CCF4491C1
:1026F0004093F1003196215031090196E8CF80389E
:1027000009F093CE8091E800877F8093E800809164
:102710000F028093F1007FCE811187CE809113024A
:10272000182F823008F081CE8091E800877F809357
:10273000E80010930F0255DA1115D9F084E0809368
:10274000110342E061EC81E01CDA42E261EC84E0DA
:1027500018DA42E261EC82E014DA42E260EC83E0F3
:1027600010DA80911103843051F482E080932801C3
:102770005CCE8091E30087FDE1CF81E0E0CF81E096
:10278000F5CF0F93CF93DF93CDEAD3E04881598102
:102790006A817B8188E090E00E94112B6C81262F5A
:1027A00060E070E0CB01622F83E20E94FF2ADF919C
:1027B000CF910F91089585E08093AD031092AE0301
:1027C0008FEF8093AF0388EC8093B0031092B10336
:1027D0008DEA93E0D6CF8091B103833018F48F5FF8
:1027E0008093B1038DEA93E0CCCF8091B103811542
:1027F00019F081508093B1038DEA93E0C2CFA0E03D
:10280000B0E0E5E0F4E10C94612B182FB62ED42F44
:10281000A22E9091AD0390FF26C0092F0695069534
:10282000E02FF0E0E85CFE4F80818093AB039C7F5B
:102830009430F1F4842F493C08F088EC612F7B2D13
:102840000E94D607962F672F482F892F0E948F0846
:102850001093AE03B092AF03D093B003A11419F05C
:102860008DEA93E08EDFCDB7DEB7EAE00C947D2BE6
:10287000823019F4D091B003EBCF863019F4109167
:10288000AE03E6CF8930D9F3893111F70951E02F32
:10289000E695F0E0ED5BF84FC4916D017601C6015D
:1028A00064E170E00E94372A862F810F00FF02C08A
:1028B000812F861B4D2FD93C08F048EC97016B2DDA
:1028C0000E9458088FEFE81AF80ACC0ED11C84E158
:1028D000E816F10421F70E947A08BACFEDEAF3E096
:1028E000818121E043816281885F89CFEDEAF3E055
:1028F000818121E043816281885081CFEDEAF3E05C
:10290000628128E0620F08F46FEF21E0438181814A
:1029100076CFEDEAF3E0628128E0621B08F460E024
:1029200021E0438181816BCFEDEAF3E0438128E030
:10293000420F08F44FEF21E06281818160CFEDEA20
:10294000F3E0438128E0421B08F440E021E062818B
:10295000818155CF8F929F92AF92BF92CF92DF929B
:10296000EF92FF920F9388E090E00E94E62A4B01DD
:102970005C016093AD039092AE038093AF03B0927D
:10298000B0031092B1031092B2031092B3031092ED
:10299000B40383E290E00E94DE2A9401A5018092B4
:1029A000AD033093AE03A092AF035093B003809376
:1029B000B1031092B2031092B3031092B4030F91BB
:1029C000FF90EF90DF90CF90BF90AF909F908F904F
:1029D000089586E090E00E94DE2A8093A80382FD9D
:1029E00006C08DE18093A80388EA93E07CDA8091A9
:1029F000A803803220F0877088618093A8039091AB
:102A0000A803892F817090FF04C0892F8695869531
:102A100086950C94E50A0F931F93CF93DF93843030
:102A200008F56C30F8F44930E8F4C42FD0E0CC0F4E
:102A3000DD1F92E1699FC00DD11D112498ED899F82
:102A4000C00DD11D1124CE0189960E94DE2A082FC7
:102A5000CE018A960E94DE2A902FDF91CF911F919E
:102A60000F91089580E090E0F8CF462F7C3030F44D
:102A7000693020F4843010F4672FCDCF80E090E0EF
:102A80000895CF92DF92FF920F931F93CF93DF931E
:102A90006C010091B9038091B803082BC3E0D0E02A
:102AA00010E0C8010C2E02C0959587950A94E2F7B4
:102AB00080FD0CC02197A8F7F12C8F2DDF91CF91CD
:102AC0001F910F91FF90DF90CF900895FC2EB601DB
:102AD0008C2FCBDF0E94D106019761F3EECF1F93BD
:102AE000CF93DF93FC012581C081D181CE012115D7
:102AF00079F0611569F0C5DF182F682FCE010E94AB
:102B0000E804BE01812FB1DFDF91CF911F910895BD
:102B10000E941E05182FF5CFCF93DF93EC01B1DF94
:102B2000BE01A3DF0E94D106DF91CF910895FC0181
:102B30002481211599F080819181EEDF282F9295D3
:102B40009F70963099F060F4925F9F70923030F4ED
:102B5000203FB1F038F481E0283E38F080E008955D
:102B60009A5FF3CF81E0243FC9F7089591E0213FB8
:102B700009F090E081E0283E08F080E0892B08957C
:102B800081E00895673771058105910528F4CB012F
:102B900087579C4F0C94DE2A80E00895CF92DF92F5
:102BA000EF92FF92CF93DF93EC01C880D980EA8047
:102BB000FB80B601C701E6DF9FEFC91AD90AE90A0F
:102BC000F90AC882D982EA82FB82DF91CF91FF9015
:102BD000EF90DF90CF90089585E290E00E94DE2A8A
:102BE000863269F486E290E00E94DE2A883039F469
:102BF00087E290E00E94DE2A91E0823109F090E0C5
:102C0000892F81700895A8E1B0E0E9E0F6E10C9425
:102C1000612BFE013196DF0188E11D928A95E9F76B
:102C200093E6E92E91E0F92E8F01BE2EA12EF70139
:102C300081917F018F3F09F444C0F894E82FE29519
:102C4000EF70F0E021A18F7041E001C0440F8A9540
:102C5000EAF7922F942B91A392A1842F8095892338
:102C600082A3789400C0EFE6F1E021E030E0C12CCF
:102C7000D12C41914F3F79F0A42FA295AF70A05E67
:102C8000B0E08C9190E04F7002C0959587954A9581
:102C9000E2F780FF3EC080E090E0C82AD92A220FE8
:102CA000331F81E0E837F80721F7F70182918F3F62
:102CB00011F00E94BF0780EA8A95F1F7F801C082FF
:102CC000D1820E5F1F4F8FE6E81681E0F80609F00B
:102CD000AECF48E150E06B2D7A2D8DE293E00E945B
:102CE000D12A892BC1F088E1EB2DFA2DADE2B3E0BA
:102CF00001900D928A95E1F781E0809314030E9480
:102D00006D0C80931203909313036896EAE00C9481
:102D10007D2BC901C2CF809114038115B1F30091BD
:102D20001203109113030E946D0C801B910B0597E9
:102D300060F348E150E06DE273E085E193E00E94CA
:102D4000D12A892B49F088E1EDE2F3E0A5E1B3E077
:102D500001900D928A95E1F710921403D6CFA0E06E
:102D6000B0E0E5EBF6E10C945F2BFC018281A82E2C
:102D7000B48081E08483E3E4F6E00491E2ECF6E0E1
:102D8000E491E090B003E6948FE7E80EF12CEE0CAE
:102D9000FF1CEF2CF12CC7E6D2E06D011FEFE01B0A
:102DA0008E2F90E04C018A2D833030F48091AE0359
:102DB00088838091AF038983B1101AC01B821A8265
:102DC0004A81493C08F048EC9601698188810E945B
:102DD00058088FEFC81AD80A259684E1C816D1047E
:102DE00011F70E947A08CDB7DEB7ECE00C947B2B8C
:102DF0008B818115E1F081508B83189FC0011124D4
:102E00006C8170E00E94372A70E0FB01ED5BF94FA6
:102E10008491801B189FC0011124B4010E94372A9D
:102E20008091B003689FB00111247A83C9CF0E94BA
:102E3000B82A6FEF70E00E944B2A8E159F050CF0A8
:102E4000BFCF8A2D833090F00E94B82A6FEF70E0D8
:102E50000E944B2A88830E94B82A2091AF032695AE
:102E6000622F70E00E944B2A280F29831A828091DA
:102E7000B003893C20F088EC8C838B83A1CF843114
:102E8000D8F784E1F9CF6091AD036695669570E05F
:102E90004BE050E088E091E00E94C42A892B19F4AD
:102EA00081E08093AC030E946D0C809306039093A5
:102EB000070308959091AD0390FF2CC0811559F13F
:102EC0008B3258F58F73880F880F9091AD039370F4
:102ED000892B8093AD03611519F08DEA93E051DCE5
:102EE0006091AD036695669570E04BE050E088E038
:102EF00091E00E94C42A892B91F01092AC0381E0EA
:102F00008093090320E04091B0036091AF0380916A
:102F1000AE0375CC089581E0D6CF8AE2D4CFB3DF7B
:102F2000EECF8091AD03869586958F5F8B3208F04A
:102F300081E061E0BFCF8091AD0386958695815099
:102F400009F48AE261E0B6CF8091AD03816080939D
:102F5000AD0360E086958695ADCFA0E1B0E0E3EBF0
:102F6000F7E10C945B2BFE013196DF0180E11D92AD
:102F70008A95E9F708E010E099E8A92E93E0B92EC8
:102F8000612C712C23014A189E2E8F2E6201730131
:102F900081E148165104610471041CF080E1C82EDF
:102FA000D12CA601B501892D982D0E94F02AAC0CD8
:102FB000BD1C0D2C000C00084C185D086008700842
:102FC0000150104019F76096E0E10C94772B6FEFF9
:102FD00085E290E00E94FF2A6FEF86E290E00E9477
:102FE000FF2A6FEF87E290E00E94FF2A60E088E20C
:102FF00090E00E94FF2A0E94EE0FAFDF66E285E2BA
:1030000090E00E94FF2A68E086E290E00E94FF2A9A
:1030100062E187E290E00C94FF2AA1E0B0E0E3E1F6
:10302000F8E10C94692B63EE7EEF80E090E00E9463
:10303000192B60E082E090E00E94FF2A81E08093FB
:10304000B80361E083E090E00E94FF2A60E074E151
:1030500084E090E00E94192B1982CE0101960E9413
:10306000730FA9DBB4DF60E070E0AB018FE090E0AC
:103070000E94112B60E070E0AB0183E190E00E94C0
:10308000112B2196E2E00C94852BE82FE550EF33CD
:1030900008F05FC0F0E0E052F44D0C945E2ABDDF12
:1030A00081E008958091ED02807F8093ED0281E0C0
:1030B00080939E03F5CF79D80E94D40E9091ED02B3
:1030C000892F8E7F90FF81608093ED0280FDE8CF95
:1030D000817F8093ED02E4CF9091ED02892F8D7F67
:1030E00091FF82608093ED0281FFDACF8091ED0243
:1030F0008160EFCF9091ED02892F8B7F92FF8460EA
:103100008093ED0282FDF2CFCBCF9091ED02892F1B
:10311000877F93FF88608093ED0283FDE7CFC0CF68
:1031200044D89091BB03892F97FB87F980588093EF
:10313000BB03B6CF81E00E94CE0437D8B1CF89530C
:1031400091E001C0990F8A95EAF7892FF4CF8D514C
:10315000F7CF80E00895CF93C82F8115C9F082384A
:10316000C9F40E94B10B81FD13C089E30E940E0CCB
:103170000E9426108FEF97EE23E081509040204070
:10318000E1F700C0000089E30E94420C0E94261073
:10319000CF9108958338A1F40E94B10B80FDF8CF40
:1031A00083E50E940E0C0E9426108FEF91EE24E022
:1031B000815090402040E1F700C0000083E5E4CF5B
:1031C0008438A1F40E94B10B82FDE2CF87E40E9413
:1031D0000E0C0E9426108FEF91EE24E0815090405B
:1031E0002040E1F700C0000087E4CECF8450813A50
:1031F00008F0D6C080919E03813009F18230C1F180
:10320000811133C08091B503823221F48C2F3DDFD0
:103210008111BECF80912701813009F4A3C0E8EE6F
:10322000F1E08EEE91E02081C21709F4B3C031962F
:103230008E179F07C1F78C2F0E940E0CA7CF80918D
:10324000B503823219F3C43181F048F4CB3009F46C
:103250009FCFC031F9F682E080939E0399CFC932A7
:1032600021F0C83309F494CFD5CF10929E03D2CF6A
:10327000CF3409F46DC0C0F4C832A0F4CE3188F563
:10328000C73009F452C0C43109F082CF80919D0348
:10329000811509F47DCF10929D0310929B0310922B
:1032A0009C0376CFC932F0CFC13509F453C0C23583
:1032B00009F452C086EFC03509F06ACFE0919B0354
:1032C000F0919C03309709F463CF2081982F990FD8
:1032D000990B820F911D91300CF440C08FEF8083C9
:1032E00057CFCD51C0939D03C430C9F078F483E229
:1032F00091E0C23031F084E291E0C33011F482E217
:1033000091E080939B0390939C0342CFC53051F092
:103310008FE191E0C630A9F310929D0339CF81E28D
:1033200091E0EFCF80E291E0ECCF81E08093240147
:1033300084E1809323018AE0809322018EE18093CF
:10334000210188E08093200188E280931F0120CF33
:103350008AE0B4CF8FEFB2CF81E0B0CF97FFBFCF7D
:10336000108216CF8091BB0387FF59CFEC2FE695D3
:10337000E695E695F0E0E251FE4F828190E04C2F19
:10338000477021E001C0220F4A95EAF78223892B7A
:1033900009F451CF8C2F0E94420C0E9426104BCF73
:1033A0008C2F805E883060F4C77081E001C0880F88
:1033B000CA95EAF7C091B503C82BC093B503E6CE12
:1033C0008C2F855A833030F48C2F8452990B0E94B5
:1033D000C00BDECEEC2FE85AEB3150F4F0E0EE0FEC
:1033E000FF1FE255FE4F808191810E94E70BD0CEF6
:1033F0008C2F8D5C833108F0CBCE61E08C2F0E9446
:10340000A10CC6CE1F93CF93DF93182FEB01A3DE41
:10341000209739F4812F0E947C10DF91CF911F916A
:1034200008958FE99FE00197F1F700C00000219710
:10343000EFCFFF920F931F93CF93DF93C62FD42F1D
:10344000F22E8115B1F06093A9030E946D0C809358
:10345000290290932A0281E0C1FD84E0C0FD880F1B
:10346000C2FD82950E94C610CDB7DEB7E5E00C9490
:10347000822B8091A903681333C000912902109117
:103480002A020E946D0C801B910B883C910540F52F
:103490001D2F105ECD17A1F0C77001E0802F01C075
:1034A000880FCA95EAF70E94CF10183048F48D2F84
:1034B000877001C0000F8A95EAF7802F0E94C6101E
:1034C00060E070E08F2D9EDF81E0D1FD84E0D0FDD3
:1034D000880FD2FD8295183038F60E94CF10C4CFE5
:1034E00081E0C1FD84E0C0FD880FC2FD8295F5CF6B
:1034F000A4E0B0E0EEE7FAE10C945E2B7C01FC0165
:103500008481811509F47BC061E0C701E8DA8C0190
:10351000F7018581811509F440C19801375720389A
:10352000310508F0CFC0003108F05AC066E770E0FE
:1035300080E090E027DB811153C0A12CB12C450124
:1035400001111EC089829A82AB82BC828E010F5FFC
:103550001F4FC80123DBB02EA12E813008F440C0DC
:1035600009F068C0C8011ADB8130E1F4C80116DB3C
:1035700060E570E0893311F060E070E043DFE9CF8F
:1035800087E788169104A104B10451F1B401C50183
:10359000F9DA9FEF891A990AA90AB90A8111F0CFBD
:1035A0000150CECF823021F4C801F8DAD4DDD1CF7A
:1035B000833029F4C801F2DA0E947C10CACF84302B
:1035C00069F4C801EBDAC12CD12C282F2053330B1E
:1035D0002A303105C0F0C114D10411F58111B9CFE1
:1035E0008091BA03877059F0F7018581811539F010
:1035F0008091BC0382FF03C082E00E94980524965C
:10360000EDE00C947A2B4AE04C9DC0014D9D900D4D
:103610001124280F391F69018B2D9A2DBFDAD5CFC0
:10362000EFE9FFE03197F1F700C0000091E0C91A1F
:10363000D108D1CFE82FF0E0E357F74F9491792EDE
:10364000282F26952695269530E0F901E358F74F67
:10365000C4908770D12C082E02C0D594C7940A94C8
:10366000E2F7F901E359F74FA490B12C082E02C0FC
:10367000B594A7940A94E2F7235A374FF90184903E
:10368000912C02C0959487948A95E2F7C0FE02C0FF
:1036900081EE61DDA0FE02C086EE5DDD60E070E0DF
:1036A000872DB0DEA0FE03C086EE0E947C10C0FE17
:1036B00003C081EE0E947C1080FE4BCF60E070E082
:1036C0008CE25CCFF801F857E730F10508F065C0EF
:1036D000E15EF34D0C945E2A83E00E94080B88EAB9
:1036E00093E00E94730F7CCF80E0F7CF8091A80316
:1036F000883088F088508093A80391E0883008F4DF
:1037000090E08091A80390FB80F98093A80388EA59
:1037100093E00E94730F8091A80386958695869505
:103720000E94E50A5DCF9091A803892F8695869522
:103730008695983140F48F5F880F880F880F9770B7
:10374000892B8093A8038091A8038160DECF8091AC
:10375000A80380FF03C00E948F0F42CF0E94790F01
:103760003FCF8091A8038695869586958F5F8F7150
:10377000843008F080E0880F880F880F9091A803AC
:103780009770892BB8CF8091A80381FF03C00E9456
:10379000B20F26CF0E949C0F23CFF801E851FC47BF
:1037A000E730F10500F5EA5DF34D0C945E2A26E260
:1037B00041EE61EE3EDE14CF27E245EE65EEFACF34
:1037C00026E241EE60EEF6CF27E245EE64EEF2CF60
:1037D00026E241EE62EEEECF27E245EE66EEEACF5C
:1037E00028E241E0EBCF811509F4E4C31092A9036C
:1037F000980130572332310508F0C5C384E090E0CA
:103800000E94EB2A8093BB039093BC03F801E15024
:10381000F047E232F10520F4E35DF34D0C945E2AAB
:103820008091BB0381608093BB036091BB03709167
:10383000BC0384E090E00E94192B0E94D510D0CEEA
:103840008091BC0388608093BC03EFCF8091BB0361
:103850008260E9CF8091BB038460E5CF8091BB0398
:103860008860E1CF8091BC038160EDCF8091BC0383
:103870008260E9CF8091BB038061D5CF8091BB038B
:103880008062D1CF8091BB038064CDCF0E94D510E0
:103890008091BB038068C7CF8091BB038C60C3CF8E
:1038A0008091BC038360CFCF8091BB038E7FBBCF61
:1038B0008091BC03877FC7CF8091BB038D7FB3CF3F
:1038C0008091BB038B7FAFCF8091BB03877FABCF52
:1038D0008091BC038E7FB7CF8091BC038D7FB3CF27
:1038E0008091BB038F7E9FCF8091BB038F7D9BCF49
:1038F0008091BB038F7B97CF0E94D5108091BB0333
:103900008F7791CF8091BB03837F8DCF8091BC0354
:103910008C7F99CF9091BB03892F8B7F92FF84601E
:10392000877F92FF88607FCF8091BC03982F90950E
:1039300090FB80F990FB81F986CF9091BB03892F92
:103940008F7B96FF80646FCF0E94D5109091BB0350
:10395000892F97FB87F9805866CF61E08EE090E071
:103960000E94FF2A62CF60E0F9CF9091BB03892FBC
:103970008F7E94FF806157CF9091BB03892F8E7FFC
:1039800090FF816050CF9091BC03892F877F93FF78
:10399000886059CF89E219C39272F801E052F84762
:1039A000EB30F10508F055C0E15BF34D0C945E2A55
:1039B00007379CE7190709F050C081E00E94DD0439
:1039C0006DC08091AD0380FF0CC08E7F8093AD03EE
:1039D0008DEA93E00E94C1131092AC030E947A0812
:1039E000FFCD81608093AD0361E08695869562DAB4
:1039F000F7CD911521F09FDAF3CD9115E1F391DA2E
:103A0000EFCD911529F00E947614EACD9115D9F3E6
:103A10000E946E14E5CD911529F00E948914E0CD25
:103A20009115D9F30E947E14DBCD911529F00E94E7
:103A30009F14D6CD9115D9F30E949414D1CD911530
:103A400029F00E94F513CCCD9115D9F30E94EB1308
:103A5000C7CD07379CE71907F1F008379CE719072E
:103A600019F19801205E32452032310518F5811197
:103A700033C00F7181E090E002C0880F991F0A9552
:103A8000E2F78C01682F83E090E00E94FF2A802FEC
:103A90000E94CE04A5CD81E00E94D40443E062E000
:103AA00081E00E9451059CCD811511F082E0F4CF98
:103AB00082E084CF811581F10B359CE7190711F164
:103AC0000C359CE7190799F00A359CE71907C1F0F6
:103AD00001309CE71907F1F003309CE71907A1F0CA
:103AE00001151C47C9F40E94D5100E94D40E809184
:103AF000BC03002482FF0394802D0E945C0F70CDD4
:103B000081E0FBCF80E0F9CF6FEF7FEF80E090E0C6
:103B10000E94192B0E94FF10F7010081118181156D
:103B200009F447C0C8010E944115D82E682FC8016A
:103B30000E94E804B8018D2D0E9435150E94D1061F
:103B4000182FA92EF701C580D680D2948FE0D822F5
:103B50008091BA03877001F1BC2CC114F1F0892F58
:103B6000807F803461F0812F805E8830A8F0892FBB
:103B7000807E803221F4123078F0D11469F0809187
:103B8000BC0382FF09C082E00E9498058091BA03BD
:103B90008770BB24B3948111B12CEA2DE295EF70AC
:103BA0008A2D803C08F069C0F0E0E65AF34D0C9491
:103BB0005E2AC8010E941E05D82EBCCF0A2D0F70A8
:103BC000803110F00295007FC114B9F0011569F041
:103BD000812F805E883010F0111109C08091B503EB
:103BE000802B8093B5030E942610812F3FC08091C7
:103BF000BD03802B8093BD03F6CF812F0E947C10E4
:103C00000115D9F1812F805E883010F0111104C0A8
:103C1000802F0E94D50506C000958091BD038023AA
:103C20008093BD030E94261028C00A2D0F70807F4C
:103C3000803211F00295007F113040F009F464C029
:103C4000C11409F46FC0D114A1F1CFCF8091BC038E
:103C500082FD2BC0C11461F0011539F08091B503CC
:103C6000802B8093B5030E94261080E074DA05C093
:103C700080E00E947C100111CBCFB11409F4B3C0D5
:103C80008091BA0380FDAFC0F701158286958695B5
:103C900086950E94D404C7012BDC8091BA038695D7
:103CA000869586950E94DD049EC0C11499F0D110BE
:103CB00004C0802F0E94C610E0CF8D2D8130E9F620
:103CC0008091B603902F98230917B9F2802B809327
:103CD000B603D3CFD110D1CF802F0E94CF109091B7
:103CE000B603802F892329F0802F80958923809324
:103CF000B6038091B703902F982309F4BECF0095A7
:103D000008230093B703B9CF8D2DC11421F086305D
:103D100008F0B3CFCECF853008F0AFCF802F0E9410
:103D2000CF10ABCFD114D1F3193349F48FEF97EE05
:103D300023E0815090402040E1F700C00000812F37
:103D40000E947C109ACF869586958370813060F0B2
:103D500009F093CF812F9A2D9370C11002C080E09B
:103D600090E00E94E70B89CF812F9A2D9370C110AC
:103D700002C080E090E00E94C00B7FCF6C2D812FAD
:103D80000E94A10C7ACF8370F1F5C11028C0812F59
:103D9000829586958770880F880F412F4F70082E67
:103DA00001C0440F0A94EAF7212F207114FF06C0C6
:103DB0002FE001C0220F8A95EAF720958A2D86957B
:103DC00086958370982F8230B1F08330C9F080914E
:103DD000B803913069F0242B82230E94CE040E9404
:103DE000B10B0E94C10460E0C7010E946F1507CCAF
:103DF000842B822BF2CF242B8091B8038227EDCF26
:103E0000822F842BEACFC11459F1A0FEE8CF812F75
:103E1000829586958770880F880F412F4F70082EE6
:103E200001C0440F0A94EAF7212F207114FF06C045
:103E30002FE001C0220F8A95EAF720958A2D8695FA
:103E400086958370982F823091F08330A9F080910D
:103E5000B903913049F0242B82230E94D104BFCFB3
:103E6000823008F4BCCFD3CF842B822BF6CF242B07
:103E70008091B9038227F1CF822F842BEECF8F70F0
:103E8000082FC11431F00E94D404812F0E94C61063
:103E9000A6CF812F0E94CF10802F0E94DD049FCFDC
:103EA000123F79F168F4103FC1F0113F89F0C1145D
:103EB00009F455C0D11409F44FC0812F4CD98FCFCC
:103EC000133F29F1143F99F79091BC0392FD2CC048
:103ED0008A2D8F71C11409F317C08D2DC11479F08B
:103EE000853008F07CCF8A2D8F71282F81E001C0AA
:103EF000880F2A95EAF79091B9038927AECF8630CB
:103F0000F0CF8F71C110C9CF0E94D40468CF80E078
:103F1000C11409F4A2CF8A2D8F71982F81E001C0BE
:103F2000880F9A95EAF799CFC11459F08F7192FFD3
:103F3000EBCF982F990F990F990F93609093BA0335
:103F4000E3CF81E00E9498058D2D823008F447CFA1
:103F500082E00E94980543CF8A2D8F71D5CFD1146E
:103F600079F0193349F48FEF97EE23E081509040B8
:103F70002040E1F700C00000812F0E947C102FCF6D
:103F80008A2D8F718ACF9091B50306312CE71207E5
:103F900009F002CD9A7A81E0911101C080E080930E
:103FA000AA0385E3911101C089E20E940E0C0E94D0
:103FB000261016CB06319CE7190709F0F9CC809141
:103FC000AA03811509F4E6CC85E30E94420CEFCFE9
:103FD0008091FE03803170F48091FD03811551F0D2
:103FE000E091BF032091BE033091F9034091F803A3
:103FF0002E1301C00895BF0187E0E89FF00111244E
:10400000DF01A054BC4F14968C911497811551F187
:1040100011968C911197831325C08C91841322C023
:1040200015968C91159781111DC012968D919D91B9
:10403000A091FA03B091FB038A1B9B0B883C91056E
:1040400088F48091FE038F7080618093FE03EA53B1
:10405000FC4F80818F708061808388EF93E048DA25
:104060000C948E056F5F7F4FFB01E770C1CFADE011
:10407000B0E0EDE3F0E20C945E2B8C0186E0F801F9
:10408000DE01189601900D928A95E1F7F801F5800E
:10409000848198EF892E93E0992E7090FC03711023
:1040A00017C0811591F0F11409F40EC1C8010E94E6
:1040B0009715811509F408C187E0F801A8EFB3E06E
:1040C00001900D928A95E1F783DFFF24F39455C0A8
:1040D000D080A280B380C090FD032091FA0330917C
:1040E000FB03A501421B530BC11409F4BDC0483C9E
:1040F000510508F076C0811541F38091F903918054
:10410000E090FE039E2D903108F057C0981214C025
:104110008091F8038D1110C0F11049C08E2D8F7061
:1041200080618093FE0388EF93E0E2D98091FE03E3
:10413000F8018683F12C21C0F11039C040E0692DCF
:104140008D2D0E946F0540E0692D8D2D0E946F0519
:10415000F82E8111EFCF888599850E948C15292F23
:1041600022952F70903470F49F70223098F0911542
:10417000A9F0F8019681903188F48F2D2D96EDE00D
:104180000C947A2B2A5F2F70223060F0C801B0D9CE
:10419000FC2CF3CF911511F0811579F3805E8830F6
:1041A00060F3F4CF803F48F3815F8330F9CF809193
:1041B000FE0381608093FE03BDCF981237C08091CB
:1041C000F8038D1133C0F11031C0E682C80190D9D7
:1041D00087E0F801A8EFB3E001900D928A95E1F72E
:1041E00074CFE090FE039E2D903148F488EF93E069
:1041F0007FD9F40187E011928A95E9F79BCF811569
:1042000009F463CF9091F903818198130FC08091D5
:10421000F8038D110BC0F11009C0E682C80168D9FE
:10422000F40187E011928A95E9F74FCFC8010E9407
:104230009715811509F448C0F11409F445C08E2D75
:10424000803208F439CF8091F8039091F903898383
:104250009A83AB82BC827D821E828091FE038F8313
:10426000CE01019645D928CF483C510508F0C1CF71
:10427000811509F42ACFF11439F19091F903818164
:10428000981318C08091F8038D1114C08091FE031B
:1042900080FD9ECF803108F49BCF8683807F803F56
:1042A00009F494CF8681982F907F905F8F70892B2F
:1042B00086838CCFC8010E9497158111FDCE809115
:1042C000FE0381608093FE03C80112D9FECEABE1EC
:1042D000B0E0EDE6F1E20C94672B4E8B5F8B688FBC
:1042E000798F8A8F192F9B8F91111092BD031D8A90
:1042F00086E0FE017696DE011F9601900D928A956A
:10430000E1F70A8D011561F00B8B1C8B61E0CE018A
:104310000F960E946F1561E0CE010F960E946F15F7
:104320000B8B1C8B87E0FE013F96DE0118960190F7
:104330000D928A95E1F7CE01089699DE81112EC083
:104340002091BE033091BF0387E0AE01485F5F4F0D
:10435000FA0147505109DA0101900D928A95E1F76F
:104360008C858115D9F0822F90E08395877090E03D
:10437000AC0134171506E1F097E0929FD0011124AB
:10438000A054BC4F9E012F5F3F4FF90101900D9249
:104390009A95E1F74093BE030E948E058091BF037A
:1043A0009091BE03891311C06B96E4E00C94832BAB
:1043B0000E94D5101092BE031092BF03E8EFF3E005
:1043C00087E011928A95E9F7E9CF27E0829FC00143
:1043D000112480549C4F4BDE811531F38091BF0333
:1043E0009091C003019687708093BF03D7CFA6E05A
:1043F000B0E0EDEFF1E20C94672B0E946D0C8C01A4
:1044000080914503909146038017910771F01982BE
:104410001A820E946D0CBC0149815A8180E090E0B3
:1044200056DF00934503109346032696E4E00C9470
:10443000832BCDB7DEB7A6970FB6F894DEBF0FBEBD
:10444000CDBF85B7806885BF85B7806885BF84B7D5
:10445000877F84BF0FB6F894A8958091600088612B
:1044600080936000109260000FBE80E890E00FB66D
:10447000F89480936100909361000FBE81E0809377
:1044800028018DEB97E08093E4019093E5010E9471
:10449000900E0E94410E8091E20084608093E200C1
:1044A000789480911103811599F08091E900109121
:1044B000EC008F7010FB112717F9182B1092E900F0
:1044C0008091E80083FD0E940B111F701093E9009A
:1044D00082E084BD93E095BD9AEF97BD80936E0016
:1044E0000E94EC15811102C00E94E717F3E6EF2E3F
:1044F000F1E0FF2E0FE611E0F70181917F018F3F80
:1045000011F00E94BF070E151F05B1F70FE611E06D
:10451000F80181918F018F3F11F00E94BF0781E068
:1045200008371807A9F7E5E1F3E088E111928A95C9
:10453000E9F7EDE2F3E088E111928A95E9F780E08E
:1045400090E00E94EB2A833E9E4F21F40E94EC15DE
:10455000811102C00E940D1882E090E00E94DE2AC4
:104560008093ED0284E090E00E94EB2A8093BB03ED
:104570009093BC030E9403168FEF96E721E08150D1
:1045800090402040E1F700C000000E940316809197
:10459000150380FF08C06FEF7FEF80E090E00E947E
:1045A000192B0E94D40E83E090E00E94DE2A0E9424
:1045B000CE046E9A769A229A2A9A279A2F988AE09F
:1045C0008093800089E1809381008FEF9FEF90932B
:1045D0008700809386000E94E9148091A80381FFE0
:1045E0000BC01092CE021092CF021092CD02809199
:1045F0006F00816080936F000E94E9148091D00267
:10460000811120C08DEA93E00E94AA148091AD032D
:10461000843030F40E94DB138DEA93E00E94AA14E8
:104620000E9465081092AC030E941D0B8091AD039F
:1046300080FF05C060E0869586950E945A1781E04C
:104640008093D00283E191E08093670390936803A5
:10465000332433947E018FEFE81AF80A8091110316
:1046600000E110E4E2E1DE2E853009F4F6C00E949C
:1046700003168EEE92E089A39AA385E193E08BA3C3
:104680009CA326E033E0FC01AEEEB2E04D915D91DB
:10469000808191812A173B0709F4F6C032964817AA
:1046A0005907A1F305ED12E0212CEBA1FCA1A1908B
:1046B000B190EBA3FCA3E9A1FAA181919191E9A3A7
:1046C000FAA38A159B0509F44DC08A259B258DA365
:1046D0009EA3C12CD12C460183948DA19EA188213B
:1046E0009921892B89F135016820792061E0462ED6
:1046F000512C0C2C02C0440C551C0A94E2F7F80112
:104700008081918184219521892B99F4C9822A8203
:104710000E946D0C8B839C833D8291E06114710437
:1047200009F490E09E8349815A816B817C818D815F
:10473000CEDD672849F440945094F801808191813E
:104740008421952180839183880C991C8FEFC81A4E
:10475000D80A89E0C816D10409F0BFCFE9A1FAA1AF
:10476000B292A29223940E5F1F4F822D8C3009F0DB
:104770009CCF0E94580D8DC080911103843009F4A4
:104780003CC080E00E94080B80E00E94C1041092AF
:10479000AC038091D30281110DC03092D30280917D
:1047A000AD03982F91709093D2028E7F8093AD03CA
:1047B0000E947A081092D10288E190E00FB6F89436
:1047C000A895809360000FBE1093600083B7817F2F
:1047D000846083BF83B7816083BF7894889583B7F3
:1047E0008E7F83BF0FB6F894A89580916000886192
:1047F00080936000109260000FBE0E940316E5E1F6
:10480000F3E0A5EDB2E080E0219131912D933D934D
:1048100091E0232B09F490E0892B2DE233E02E1751
:104820003F0791F78115C9F08091D4028115A9F055
:1048300009BDD9BC09B400FEFDCF8091D8008F7DA1
:104840008093D8008091E00082608093E0008091A6
:10485000E00081FDFCCF0E94D510809111038530CE
:1048600009F48ACF0E94D5100E94E9140E94B10B6E
:104870000E94C1041092D3028091D20281110E9441
:10488000A4170E944317F3CE4817590709F00ACF1F
:10489000AEDD8091AC03811509F444C08091AB0377
:1048A000E091AD03E695E695E81BE09308038531BA
:1048B00009F46CC108F01DC1893009F45BC108F02E
:1048C00009C1823009F440C1863009F448C100EDC5
:1048D00017E045EDC42E47E0D42E809109038115E1
:1048E00061F0109209030E946D0C8093060390936F
:1048F000070310920A0310920B030E946D0C209183
:10490000060330910703821B930B8F3F9F4750F4A0
:10491000200F311F209306033093070386E093E0B6
:10492000F601099586E0E2EAF3E0D70101900D92E5
:104930008A95E1F79090A303B090A4031091A5038A
:10494000A090A6030091A7031092A4031092A503C0
:104950001092A6031092A703812F8B29A1F0C0907B
:104960000E03D0900F030E946D0C8C199D099C01C1
:104970009091A003911509F41BC180912301821726
:10498000130608F423C18A2D802B09F441C0C0907E
:104990000C03D0900D030E946D0C8C199D099C0195
:1049A00090919F03911509F448C32135310580F199
:1049B0009F3F19F09F5F90939F03A11459F00E94AD
:1049C000790B91E01A140CF09FEF899F802D112430
:1049D0008093A603011559F00E94790B91E01016FF
:1049E0000CF09FEF899F802D11248093A703809165
:1049F000A603811569F0D090A703D11449F00E9455
:104A00002A0B8093A6038D2D0E942A0B8093A70367
:104A10008091A303981219C08091A403811511F00D
:104A20008B1113C02091A503211511F021130DC086
:104A30009091A703911511F0901307C03091A60330
:104A4000311103C0822B892B11F00E94790C86E072
:104A5000F701A2EAB3E001900D928A95E1F70E9476
:104A6000B10B182F80911003181739F01093100311
:104A70000E94580D812F0E94C1048091110384303F
:104A800009F0ECCD83E08093E9008091E80082FF9B
:104A9000E5CD8091E80090E085FF0AC00E94100EED
:104AA00060E2C62ED12C8701811509F4CAC091E0BD
:104AB0008091E8008B778093E800911509F4CECDC2
:104AC0008981E82FE150E33108F0D5C0F0E0EA59E0
:104AD000F34DF4C48F3009F0FACEE695F0E0E05BD8
:104AE000F74FE4910E2F10E082E2C82E89E0D82E15
:104AF000F4CE843209F455C0A8F408E210E07AEC50
:104B0000C72E79E0D72E883109F4E7CE833209F039
:104B1000DECEEBE4F8E005911591ACEACA2EA8E0F0
:104B2000DA2EDBCE853209F0D2CE8E2F63E086D42A
:104B3000E92FF0E0E85BF74FE4910E2F10E0FFEA79
:104B4000CF2EF6E1DF2EC9CEF0E0E75AF74FE49121
:104B50000E2F10E036EEC32E38E0D32EBECEF0E09E
:104B6000EA5AF74FE4910E2F10E027EDC22E28E00D
:104B7000D22EB3CEE695F0E0ED5AF74FE4910E2F2A
:104B800010E099EFC92E98E0D92EA7CEF0E0E35BB4
:104B9000F74FE4910E2F10E0BFE7CB2EB9E0DB2EEC
:104BA0009CCE04EF11E0EDE3CE2EEAE0DE2E95CEB2
:104BB000409124018AE0489FA00111244217530725
:104BC00008F0E1CE9F5F9093A00302C09F3FD1F712
:104BD000B11459F00E94380B91E01B140CF09FEFB8
:104BE000899F802D11248093A403111559F00E94F0
:104BF000380B91E011160CF09FEF899F802D112446
:104C00008093A5038091A403811509F4BCCED090B4
:104C1000A503D11409F4B7CE0E942A0B8093A403F4
:104C20008D2D0E942A0B8093A503ADCE8091F100BB
:104C3000F801808381E0C81AD10809F438CF0F5FEA
:104C40001F4F8091E80085FDF1CF8091E8008B77C0
:104C50008093E8000E94100E811599F328CF1A82E4
:104C60008DE08B8323C08A81833089F138F48130D1
:104C7000B1F0823061F08FEF898318C08430C9F1C0
:104C80008630C9F71B821C821D8288E006C088E23C
:104C900090E094D41B821C821D828E8307C00E94E8
:104CA000580D12D46B837C838D839E83E0916703C0
:104CB000F0916803309709F4D1CC0284F385E02D9C
:104CC000309709F4CBCC60E2C7010995C7CC8B8142
:104CD00090E0F7018C3091054CF73296DC01AA0F79
:104CE000BB1FAB5EBC4F2D913C913183228301965B
:104CF000F1CF1B821C821D821E82D8CF8A81823016
:104D0000B9F0853009F0B7CF8091A80380FF19C0B2
:104D10000E948F0F8091AD0380FF16C08091AD037C
:104D20008E7F8093AD031092AC030E947A08BECFB1
:104D30006B817C818D819E81C7D388E290E05FD4B6
:104D4000B5CF0E94790FE6CF0E94A417AFCF4C8158
:104D50006B818A810E940B159827892798278D835C
:104D60009E83A4CF2D813E813227232732274C8179
:104D70006B818A810E94C80F99CF0E94EE0F96CF57
:104D80009A819130E1F58830F9F0893099F18B8181
:104D9000813049F0823009F089CF8C81811111C0B6
:104DA0000E94B20F83CF2C8130E0C901880F991F78
:104DB000820F931F6FEF70E05AD3862F0E94080B6B
:104DC00075CF0E949C0F72CF8B81813041F0823071
:104DD00009F06CCF8091A8038695817009C08091FD
:104DE000A80386958695869525E5829FC0011124A6
:104DF0008C835CCF88EA93E00E94730F57CF923088
:104E000009F039CF8830A9F1893009F45CC08B8171
:104E1000833059F180F48130B9F0823009F046CF07
:104E20008C81811509F47ACF0E94A41760E08C81EF
:104E30000E945A173BCF843009F038CF20E04091D0
:104E4000B0036D818C810EC08C8128EC829FC001E3
:104E500011246FEF70E00BD3462F20E06091AF0379
:104E60008091AE030E94FF1321CF8C818093B10308
:104E70001DCF8B81833021F160F48130A1F082302D
:104E800009F014CF8091AD0380FF18C086958695F8
:104E9000AFCF843009F00ACF8091AE038C8380912C
:104EA000AF038D8303CF8091B0032FEF829FC001AA
:104EB000112468EC70E0DBD26C83F8CE80E098CFF0
:104EC0008091B10395CF0E9465088DEA93E00E941E
:104ED000C113ECCE80E18A83E9CE1A8287E7C1CE86
:104EE0008A809B80982489249824A12CB12C670166
:104EF0008C818701080F111DC016D10609F4D6CE8A
:104F000087E788169104A104B10478F4C401875797
:104F10009C4F54D3F60184838FEFC81AD80A8FEFC1
:104F2000881A980AA80AB80AE7CF80E0F3CFDC8095
:104F30008A809B80982489249824A12CB12C8701F5
:104F4000250132014D1451046104710408F0AECE04
:104F500087E788169104A104B10430F4F801648154
:104F6000C40187579C4F4BD38FEF481A580A680AE1
:104F7000780A8FEF881A980AA80AB80A0F5F1F4F9D
:104F8000E1CF0E94AD1792CE84E0A5CFDC808A806D
:104F90009B80982489249824A12CB12C25013201CE
:104FA0008E010B5F1F4F4D1451046104710408F012
:104FB0007DCE80E6881683E09806A104B10488F4CB
:104FC000C4018996FBD2F80181938F018FEF481AB3
:104FD000580A680A780A8FEF881A980AA80AB80A45
:104FE000E2CF80E0F0CFDC808A809B809824892407
:104FF0009824A12CB12C8701250132014D145104B4
:105000006104710408F052CE80E6881683E09806A9
:10501000A104B10428F4F8016481C4018996EFD297
:105020008FEF481A580A680A780A8FEF881A980A88
:10503000A80AB80A0F5F1F4FE1CF2B30310508F0E7
:10504000B9CCE6CC1F920F920FB60F9211242F937A
:105050003F934F935F936F937F938F939F93AF9300
:10506000BF93EF93FF93809104018230A1F08F5F93
:1050700080930401FF91EF91BF91AF919F918F9128
:105080007F916F915F914F913F912F910F900FBE44
:105090000F901F90189581E0809304018091CE02BB
:1050A0009091CF02019660ED72E0E1D18093CE0243
:1050B0009093CF0265E070E0DAD167FD6FE78091F1
:1050C000CD02823061F5603429F480916F008E7FCB
:1050D00080936F00E62FF0E0ED53FA4F2491A091FA
:1050E0008600B091870030E01BD32FEF40E050E006
:1050F00026D3C90163E070E0BAD18091A8038695F8
:1051000086958695282F269FC001279F900D1124F4
:105110000E94710A90938D0080938C00ABCF8130F8
:10512000C9F66F37D1CF1F921FB61F9211248F93EC
:105130009F93AF93BF938091D102811113C080914F
:10514000210290912202A0912302B0912402419663
:10515000A11DB11D8093210290932202A0932302EE
:10516000B0932402BF91AF919F918F911F901FBE6A
:105170001F90189578941F921FB61F9211248F9339
:105180009F93AF93BF938091210290912202A091AF
:105190002302B09124020196A11DB11D809321022A
:1051A00090932202A0932302B0932402BF91AF9167
:1051B0009F918F911F901FBE1F9018951F920F9265
:1051C0000FB60F9211242F933F934F935F936F93DA
:1051D0007F938F939F93AF93BF93EF93FF938091B0
:1051E000E10082FF09C08091E20082FF05C080914A
:1051F000E1008B7F8093E1008091DA0080FF24C082
:105200008091D80080FF20C08091DA008E7F80934B
:10521000DA008091D90080FFA9C080E189BD82E1D8
:1052200089BD09B400FEFDCF81E080931103809118
:105230001002811109C00E94900E0E94410E8091BF
:10524000E20084608093E2008091E10080FF1AC058
:105250008091E20080FF16C08091E2008E7F8093F3
:10526000E2008091E20080618093E2008091D800AA
:1052700080628093D80019BC85E08093110383E09D
:10528000809328018091E10084FF2FC08091E2008B
:1052900084FF2BC080E189BD82E189BD09B400FE95
:1052A000FDCF8091D8008F7D8093D8008091E10060
:1052B0008F7E8093E1008091E2008F7E8093E200F8
:1052C0008091E20081608093E20080910F0281155D
:1052D00009F452C084E0809311038091110384305B
:1052E00009F052C082E0809328018091E10083FFA1
:1052F0002CC08091E20083FF28C08091E100877F6D
:105300008093E10082E08093110310920F0280915C
:10531000E1008E7F8093E1008091E2008E7F809398
:10532000E2008091E20080618093E20042E060E070
:1053300080E00E94C10D8091F00088608093F000B1
:1053400081E08093280180932701FF91EF91BF9125
:10535000AF919F918F917F916F915F914F913F910D
:105360002F910F900FBE0F901F90189519BC10929F
:1053700011031092100268CF8091E30087FF02C0F2
:1053800083E0A9CF81E0A7CF81E0ADCF1F920F923C
:105390000FB60F9211241F932F933F934F935F9358
:1053A0006F937F938F939F93AF93BF93CF93DF932D
:1053B000EF93FF93E9EEF0E080811091EC008F70A5
:1053C00010FB112717F9182B1082C0EFD0E088814D
:1053D000877F888378940E940B11E9EEF0E01082B9
:1053E0008881886088831F701083FF91EF91DF911F
:1053F000CF91BF91AF919F918F917F916F915F916D
:105400004F913F912F911F910F900FBE0F901F90C2
:10541000189586D1332312F48A1B9B0B5DC0DB01E8
:105420008F939F9336D1BF91AF91A29F800D911D15
:10543000A39F900DB29F900D11240895992778E0B5
:10544000880F991F961708F0961B881F7A95C9F741
:105450008095089587FB082E062687FD819567FDB8
:105460006195ECDF0EF4919507FC81950895AA1BD8
:10547000BB1B51E107C0AA1FBB1FA617B70710F03F
:10548000A61BB70B881F991F5A95A9F78095909571
:10549000BC01CD01089597FB072E16F4009406D0A9
:1054A00077FD08D0E4DF07FC05D03EF490958195A8
:1054B0009F4F0895709561957F4F0895EE0FFF1FE0
:1054C0000590F491E02D099469279627692778279C
:1054D00087277827089524D1B7FF0895821B930B5F
:1054E0000895AAE0B0E0E6E7FAE2F3C089879A8778
:1054F000FC016081718182819381009770406040DE
:1055000021F464E279ED8BE597E02DE133EF41E0A2
:1055100050E0A3D029833A834B835C839B01AC0189
:10552000A7EAB1E4B6D06D837E838F839887ACEE13
:10553000B4EF29813A814B815C81B7D02D813E81C6
:105540004F815885260F371F481F591FC901DA019F
:10555000B7FF03C00197A109B048E985FA858083A8
:105560009183A283B3839F772A96E2E0CEC0B9CF1E
:1055700080E091E0B6CF80930001909301011092FA
:105580000201109203010895FC014150504030F097
:1055900001900616D1F73197CF01089588279927F2
:1055A0000895FB01DC0104C08D910190801921F464
:1055B00041505040C8F7881B990B0895F999FECFC8
:1055C00092BD81BDF89A992780B50895A6E1B0E013
:1055D00044E050E034C0A8E1B0E042E050E02FC029
:1055E000DC01A40FB51F4150504040F0CB01840FA7
:1055F000951F2E9105D041505040D8F70895262F81
:10560000F999FECF92BD81BDF89A019700B40216B8
:1056100039F01FBA20BD0FB6F894FA9AF99A0FBE66
:1056200008950396272FECDFEADF252FE9DF242FEB
:10563000E7CF0196272FE4DFE2CFDC01CB01FC01AD
:10564000F999FECF06C0F2BDE1BDF89A319600B4DB
:105650000D9241505040B8F70895052E97FB16F46F
:1056600000940FD057FD05D06AD007FC02D046F455
:1056700008C050954095309521953F4F4F4F5F4F53
:10568000089590958095709561957F4F8F4F9F4FAE
:10569000089546D0A59F900DB49F900DA49F800DB6
:1056A000911D11240895B7FFF4CFF3DF821B930BF4
:1056B00008952F923F924F925F926F927F928F92B6
:1056C0009F92AF92BF92CF92DF92EF92FF920F9391
:1056D0001F93CF93DF93CDB7DEB7CA1BDB0B0FB69B
:1056E000F894DEBF0FBECDBF09942A883988488858
:1056F0005F846E847D848C849B84AA84B984C884EE
:10570000DF80EE80FD800C811B81AA81B981CE0FE4
:10571000D11D0FB6F894DEBF0FBECDBFED010895C9
:10572000A29FB001B39FC001A39F700D811D1124E2
:10573000911DB29F700D811D1124911D0895A1E24C
:105740001A2EAA1BBB1BFD010DC0AA1FBB1FEE1FFB
:10575000FF1FA217B307E407F50720F0A21BB30B46
:10576000E40BF50B661F771F881F991F1A9469F7C2
:1057700060957095809590959B01AC01BD01CF011E
:105780000895F894FFCFAD0CB20CB40CB90CC90C51
:10579000C90CC90CC90CC90CC90CC90CC90CBB0C6F
:1057A000BF0CC20CC70CD60CDC0CE00CE9110F12BC
:1057B00015120F1215126312851215127F138C1316
:1057C0005B1852185E185018A918A9185018A91873
:1057D000A9187A18A91885189018A918A918A9182D
:1057E000A9185018A918A9185018A9186C18A918A0
:1057F000A918A718A718A718A718A718A718A718AF
:10580000A718A7189A18A9185B184F18A918A9184B
:10581000A918A918A918A918A918A918A918A91880
:105820009A18A918A9185018A9189F189F189F18F6
:105830009F189F189F189F189F189F189A186C1BE5
:10584000741BA71B761B931BB11BC31BE01BE41B24
:10585000D71BDC1BE81BEC1BF01B541CBC1C5C1C8A
:10586000261C2A1C601C2E1C641C701C3A1CB51CB7
:105870003E1C741C421C781C9D1C461C7C1CA41CD9
:105880004C1C821C8A1C321C681C361C6C1C501C54
:10589000861C941CAD1CB31C201C581CC31CE11C92
:1058A000F91CFD1C011D061D0B1D101D151D1A1DCB
:1058B0001F1D241DDE1DDE1D151E151EA31EBE1E72
:1058C0003D1E3D1EC31E3F1F501F501F2F26332657
:1058D0007E26A726B226BD26C026C026C0263B2689
:1058E0003B266A276D2770279727C127C427C6271D
:0258F000F3279C
:1058F200010000000101010201191A1B1C1D1E1FDB
:105902002021226A0C3A0F4D0F520F570F320F28E7
:10591200081E0A1401000001004422B6840162013B
:10592200AC00DA01F30113020001020202020606D0
:10593200060909090909090F0F0F0F0F0F15151590
:10594200181919191919191919191923242525258D
:10595200252525663635349796949593929190F045
:10596200F1F4F5F6F7673031E200E900EA00B5003C
:10597200B600B700CD008301CC008A0192019401E8
:105982002102230224022502260227022A02B30050
:10599200B4006F0070009F01CB019F02A002E200E1
:1059A200E900EA00B500B600B700CD008301CC00E3
:1059B2008A01920194012102230224022502260275
:1059C20027022A02B300B4006F0070009F01CB01CE
:0459D2009F02A0028E
:00000001FF
